{
  "address": "0x5cfc9746Aa96e976e548Ee0e9db593A51b805a0F",
  "abi": [
    {
      "inputs": [
        {
          "internalType": "address",
          "name": "_messenger",
          "type": "address"
        },
        {
          "internalType": "address",
          "name": "_homeProxy",
          "type": "address"
        },
        {
          "internalType": "address",
          "name": "_governor",
          "type": "address"
        },
        {
          "internalType": "contract IArbitrator",
          "name": "_arbitrator",
          "type": "address"
        },
        {
          "internalType": "bytes",
          "name": "_arbitratorExtraData",
          "type": "bytes"
        },
        {
          "internalType": "string",
          "name": "_metaEvidence",
          "type": "string"
        },
        {
          "internalType": "uint256[3]",
          "name": "_multipliers",
          "type": "uint256[3]"
        }
      ],
      "stateMutability": "nonpayable",
      "type": "constructor"
    },
    {
      "anonymous": false,
      "inputs": [
        {
          "indexed": true,
          "internalType": "bytes32",
          "name": "_questionID",
          "type": "bytes32"
        },
        {
          "indexed": true,
          "internalType": "address",
          "name": "_requester",
          "type": "address"
        }
      ],
      "name": "ArbitrationCanceled",
      "type": "event"
    },
    {
      "anonymous": false,
      "inputs": [
        {
          "indexed": true,
          "internalType": "bytes32",
          "name": "_questionID",
          "type": "bytes32"
        },
        {
          "indexed": true,
          "internalType": "address",
          "name": "_requester",
          "type": "address"
        },
        {
          "indexed": true,
          "internalType": "uint256",
          "name": "_disputeID",
          "type": "uint256"
        }
      ],
      "name": "ArbitrationCreated",
      "type": "event"
    },
    {
      "anonymous": false,
      "inputs": [
        {
          "indexed": true,
          "internalType": "bytes32",
          "name": "_questionID",
          "type": "bytes32"
        },
        {
          "indexed": true,
          "internalType": "address",
          "name": "_requester",
          "type": "address"
        }
      ],
      "name": "ArbitrationFailed",
      "type": "event"
    },
    {
      "anonymous": false,
      "inputs": [
        {
          "indexed": true,
          "internalType": "bytes32",
          "name": "_questionID",
          "type": "bytes32"
        },
        {
          "indexed": true,
          "internalType": "address",
          "name": "_requester",
          "type": "address"
        },
        {
          "indexed": false,
          "internalType": "uint256",
          "name": "_maxPrevious",
          "type": "uint256"
        }
      ],
      "name": "ArbitrationRequested",
      "type": "event"
    },
    {
      "anonymous": false,
      "inputs": [
        {
          "indexed": true,
          "internalType": "uint256",
          "name": "_localDisputeID",
          "type": "uint256"
        },
        {
          "indexed": true,
          "internalType": "uint256",
          "name": "_round",
          "type": "uint256"
        },
        {
          "indexed": false,
          "internalType": "uint256",
          "name": "ruling",
          "type": "uint256"
        },
        {
          "indexed": true,
          "internalType": "address",
          "name": "_contributor",
          "type": "address"
        },
        {
          "indexed": false,
          "internalType": "uint256",
          "name": "_amount",
          "type": "uint256"
        }
      ],
      "name": "Contribution",
      "type": "event"
    },
    {
      "anonymous": false,
      "inputs": [
        {
          "indexed": true,
          "internalType": "contract IArbitrator",
          "name": "_arbitrator",
          "type": "address"
        },
        {
          "indexed": true,
          "internalType": "uint256",
          "name": "_disputeID",
          "type": "uint256"
        },
        {
          "indexed": false,
          "internalType": "uint256",
          "name": "_metaEvidenceID",
          "type": "uint256"
        },
        {
          "indexed": false,
          "internalType": "uint256",
          "name": "_evidenceGroupID",
          "type": "uint256"
        }
      ],
      "name": "Dispute",
      "type": "event"
    },
    {
      "anonymous": false,
      "inputs": [
        {
          "indexed": true,
          "internalType": "contract IArbitrator",
          "name": "_arbitrator",
          "type": "address"
        },
        {
          "indexed": true,
          "internalType": "uint256",
          "name": "_evidenceGroupID",
          "type": "uint256"
        },
        {
          "indexed": true,
          "internalType": "address",
          "name": "_party",
          "type": "address"
        },
        {
          "indexed": false,
          "internalType": "string",
          "name": "_evidence",
          "type": "string"
        }
      ],
      "name": "Evidence",
      "type": "event"
    },
    {
      "anonymous": false,
      "inputs": [
        {
          "indexed": true,
          "internalType": "uint256",
          "name": "_metaEvidenceID",
          "type": "uint256"
        },
        {
          "indexed": false,
          "internalType": "string",
          "name": "_evidence",
          "type": "string"
        }
      ],
      "name": "MetaEvidence",
      "type": "event"
    },
    {
      "anonymous": false,
      "inputs": [
        {
          "indexed": true,
          "internalType": "contract IArbitrator",
          "name": "_arbitrator",
          "type": "address"
        },
        {
          "indexed": true,
          "internalType": "uint256",
          "name": "_disputeID",
          "type": "uint256"
        },
        {
          "indexed": false,
          "internalType": "uint256",
          "name": "_ruling",
          "type": "uint256"
        }
      ],
      "name": "Ruling",
      "type": "event"
    },
    {
      "anonymous": false,
      "inputs": [
        {
          "indexed": true,
          "internalType": "uint256",
          "name": "_localDisputeID",
          "type": "uint256"
        },
        {
          "indexed": true,
          "internalType": "uint256",
          "name": "_round",
          "type": "uint256"
        },
        {
          "indexed": true,
          "internalType": "uint256",
          "name": "_ruling",
          "type": "uint256"
        }
      ],
      "name": "RulingFunded",
      "type": "event"
    },
    {
      "anonymous": false,
      "inputs": [
        {
          "indexed": false,
          "internalType": "bytes32",
          "name": "_questionID",
          "type": "bytes32"
        },
        {
          "indexed": false,
          "internalType": "bytes32",
          "name": "_ruling",
          "type": "bytes32"
        }
      ],
      "name": "RulingRelayed",
      "type": "event"
    },
    {
      "anonymous": false,
      "inputs": [
        {
          "indexed": true,
          "internalType": "uint256",
          "name": "_localDisputeID",
          "type": "uint256"
        },
        {
          "indexed": true,
          "internalType": "uint256",
          "name": "_round",
          "type": "uint256"
        },
        {
          "indexed": false,
          "internalType": "uint256",
          "name": "_ruling",
          "type": "uint256"
        },
        {
          "indexed": true,
          "internalType": "address",
          "name": "_contributor",
          "type": "address"
        },
        {
          "indexed": false,
          "internalType": "uint256",
          "name": "_reward",
          "type": "uint256"
        }
      ],
      "name": "Withdrawal",
      "type": "event"
    },
    {
      "inputs": [],
      "name": "MULTIPLIER_DIVISOR",
      "outputs": [
        {
          "internalType": "uint256",
          "name": "",
          "type": "uint256"
        }
      ],
      "stateMutability": "view",
      "type": "function"
    },
    {
      "inputs": [],
      "name": "NUMBER_OF_CHOICES_FOR_ARBITRATOR",
      "outputs": [
        {
          "internalType": "uint256",
          "name": "",
          "type": "uint256"
        }
      ],
      "stateMutability": "view",
      "type": "function"
    },
    {
      "inputs": [],
      "name": "REFUSE_TO_ARBITRATE_REALITIO",
      "outputs": [
        {
          "internalType": "uint256",
          "name": "",
          "type": "uint256"
        }
      ],
      "stateMutability": "view",
      "type": "function"
    },
    {
      "inputs": [],
      "name": "VERSION",
      "outputs": [
        {
          "internalType": "string",
          "name": "",
          "type": "string"
        }
      ],
      "stateMutability": "view",
      "type": "function"
    },
    {
      "inputs": [
        {
          "internalType": "uint256",
          "name": "",
          "type": "uint256"
        }
      ],
      "name": "arbitrationIDToDisputeExists",
      "outputs": [
        {
          "internalType": "bool",
          "name": "",
          "type": "bool"
        }
      ],
      "stateMutability": "view",
      "type": "function"
    },
    {
      "inputs": [
        {
          "internalType": "uint256",
          "name": "",
          "type": "uint256"
        }
      ],
      "name": "arbitrationIDToRequester",
      "outputs": [
        {
          "internalType": "address",
          "name": "",
          "type": "address"
        }
      ],
      "stateMutability": "view",
      "type": "function"
    },
    {
      "inputs": [
        {
          "internalType": "uint256",
          "name": "",
          "type": "uint256"
        },
        {
          "internalType": "address",
          "name": "",
          "type": "address"
        }
      ],
      "name": "arbitrationRequests",
      "outputs": [
        {
          "internalType": "enum RealitioForeignProxyRedStone.Status",
          "name": "status",
          "type": "uint8"
        },
        {
          "internalType": "uint248",
          "name": "deposit",
          "type": "uint248"
        },
        {
          "internalType": "uint256",
          "name": "disputeID",
          "type": "uint256"
        },
        {
          "internalType": "uint256",
          "name": "answer",
          "type": "uint256"
        },
        {
          "internalType": "contract IArbitrator",
          "name": "arbitrator",
          "type": "address"
        },
        {
          "internalType": "bytes",
          "name": "arbitratorExtraData",
          "type": "bytes"
        },
        {
          "internalType": "uint256",
          "name": "metaEvidenceID",
          "type": "uint256"
        }
      ],
      "stateMutability": "view",
      "type": "function"
    },
    {
      "inputs": [],
      "name": "arbitrator",
      "outputs": [
        {
          "internalType": "contract IArbitrator",
          "name": "",
          "type": "address"
        }
      ],
      "stateMutability": "view",
      "type": "function"
    },
    {
      "inputs": [
        {
          "internalType": "address",
          "name": "",
          "type": "address"
        },
        {
          "internalType": "uint256",
          "name": "",
          "type": "uint256"
        }
      ],
      "name": "arbitratorDisputeIDToDisputeDetails",
      "outputs": [
        {
          "internalType": "uint256",
          "name": "arbitrationID",
          "type": "uint256"
        },
        {
          "internalType": "address",
          "name": "requester",
          "type": "address"
        }
      ],
      "stateMutability": "view",
      "type": "function"
    },
    {
      "inputs": [],
      "name": "arbitratorExtraData",
      "outputs": [
        {
          "internalType": "bytes",
          "name": "",
          "type": "bytes"
        }
      ],
      "stateMutability": "view",
      "type": "function"
    },
    {
      "inputs": [
        {
          "internalType": "contract IArbitrator",
          "name": "_arbitrator",
          "type": "address"
        },
        {
          "internalType": "bytes",
          "name": "_arbitratorExtraData",
          "type": "bytes"
        }
      ],
      "name": "changeArbitrator",
      "outputs": [],
      "stateMutability": "nonpayable",
      "type": "function"
    },
    {
      "inputs": [
        {
          "internalType": "address",
          "name": "_governor",
          "type": "address"
        }
      ],
      "name": "changeGovernor",
      "outputs": [],
      "stateMutability": "nonpayable",
      "type": "function"
    },
    {
      "inputs": [
        {
          "internalType": "uint256",
          "name": "_loserAppealPeriodMultiplier",
          "type": "uint256"
        }
      ],
      "name": "changeLoserAppealPeriodMultiplier",
      "outputs": [],
      "stateMutability": "nonpayable",
      "type": "function"
    },
    {
      "inputs": [
        {
          "internalType": "uint256",
          "name": "_loserMultiplier",
          "type": "uint256"
        }
      ],
      "name": "changeLoserMultiplier",
      "outputs": [],
      "stateMutability": "nonpayable",
      "type": "function"
    },
    {
      "inputs": [
        {
          "internalType": "address",
          "name": "_messenger",
          "type": "address"
        }
      ],
      "name": "changeMessenger",
      "outputs": [],
      "stateMutability": "nonpayable",
      "type": "function"
    },
    {
      "inputs": [
        {
          "internalType": "string",
          "name": "_metaEvidence",
          "type": "string"
        }
      ],
      "name": "changeMetaevidence",
      "outputs": [],
      "stateMutability": "nonpayable",
      "type": "function"
    },
    {
      "inputs": [
        {
          "internalType": "uint32",
          "name": "_minGasLimit",
          "type": "uint32"
        }
      ],
      "name": "changeMinGasLimit",
      "outputs": [],
      "stateMutability": "nonpayable",
      "type": "function"
    },
    {
      "inputs": [
        {
          "internalType": "uint256",
          "name": "_winnerMultiplier",
          "type": "uint256"
        }
      ],
      "name": "changeWinnerMultiplier",
      "outputs": [],
      "stateMutability": "nonpayable",
      "type": "function"
    },
    {
      "inputs": [
        {
          "internalType": "uint256",
          "name": "_externalDisputeID",
          "type": "uint256"
        }
      ],
      "name": "externalIDtoLocalID",
      "outputs": [
        {
          "internalType": "uint256",
          "name": "",
          "type": "uint256"
        }
      ],
      "stateMutability": "view",
      "type": "function"
    },
    {
      "inputs": [
        {
          "internalType": "uint256",
          "name": "_arbitrationID",
          "type": "uint256"
        },
        {
          "internalType": "uint256",
          "name": "_answer",
          "type": "uint256"
        }
      ],
      "name": "fundAppeal",
      "outputs": [
        {
          "internalType": "bool",
          "name": "",
          "type": "bool"
        }
      ],
      "stateMutability": "payable",
      "type": "function"
    },
    {
      "inputs": [
        {
          "internalType": "uint256",
          "name": "_arbitrationID",
          "type": "uint256"
        },
        {
          "internalType": "uint256",
          "name": "_round",
          "type": "uint256"
        },
        {
          "internalType": "address",
          "name": "_contributor",
          "type": "address"
        }
      ],
      "name": "getContributionsToSuccessfulFundings",
      "outputs": [
        {
          "internalType": "uint256[]",
          "name": "fundedAnswers",
          "type": "uint256[]"
        },
        {
          "internalType": "uint256[]",
          "name": "contributions",
          "type": "uint256[]"
        }
      ],
      "stateMutability": "view",
      "type": "function"
    },
    {
      "inputs": [
        {
          "internalType": "bytes32",
          "name": "",
          "type": "bytes32"
        }
      ],
      "name": "getDisputeFee",
      "outputs": [
        {
          "internalType": "uint256",
          "name": "",
          "type": "uint256"
        }
      ],
      "stateMutability": "view",
      "type": "function"
    },
    {
      "inputs": [
        {
          "internalType": "uint256",
          "name": "_arbitrationID",
          "type": "uint256"
        },
        {
          "internalType": "uint256",
          "name": "_round",
          "type": "uint256"
        },
        {
          "internalType": "uint256",
          "name": "_answer",
          "type": "uint256"
        }
      ],
      "name": "getFundingStatus",
      "outputs": [
        {
          "internalType": "uint256",
          "name": "raised",
          "type": "uint256"
        },
        {
          "internalType": "bool",
          "name": "fullyFunded",
          "type": "bool"
        }
      ],
      "stateMutability": "view",
      "type": "function"
    },
    {
      "inputs": [],
      "name": "getMultipliers",
      "outputs": [
        {
          "internalType": "uint256",
          "name": "winner",
          "type": "uint256"
        },
        {
          "internalType": "uint256",
          "name": "loser",
          "type": "uint256"
        },
        {
          "internalType": "uint256",
          "name": "loserAppealPeriod",
          "type": "uint256"
        },
        {
          "internalType": "uint256",
          "name": "divisor",
          "type": "uint256"
        }
      ],
      "stateMutability": "view",
      "type": "function"
    },
    {
      "inputs": [
        {
          "internalType": "uint256",
          "name": "_arbitrationID",
          "type": "uint256"
        }
      ],
      "name": "getNumberOfRounds",
      "outputs": [
        {
          "internalType": "uint256",
          "name": "",
          "type": "uint256"
        }
      ],
      "stateMutability": "view",
      "type": "function"
    },
    {
      "inputs": [
        {
          "internalType": "uint256",
          "name": "_arbitrationID",
          "type": "uint256"
        },
        {
          "internalType": "uint256",
          "name": "_round",
          "type": "uint256"
        }
      ],
      "name": "getRoundInfo",
      "outputs": [
        {
          "internalType": "uint256[]",
          "name": "paidFees",
          "type": "uint256[]"
        },
        {
          "internalType": "uint256",
          "name": "feeRewards",
          "type": "uint256"
        },
        {
          "internalType": "uint256[]",
          "name": "fundedAnswers",
          "type": "uint256[]"
        }
      ],
      "stateMutability": "view",
      "type": "function"
    },
    {
      "inputs": [
        {
          "internalType": "uint256",
          "name": "_arbitrationID",
          "type": "uint256"
        },
        {
          "internalType": "address payable",
          "name": "_beneficiary",
          "type": "address"
        },
        {
          "internalType": "uint256",
          "name": "_contributedTo",
          "type": "uint256"
        }
      ],
      "name": "getTotalWithdrawableAmount",
      "outputs": [
        {
          "internalType": "uint256",
          "name": "sum",
          "type": "uint256"
        }
      ],
      "stateMutability": "view",
      "type": "function"
    },
    {
      "inputs": [],
      "name": "governor",
      "outputs": [
        {
          "internalType": "address",
          "name": "",
          "type": "address"
        }
      ],
      "stateMutability": "view",
      "type": "function"
    },
    {
      "inputs": [
        {
          "internalType": "bytes32",
          "name": "_questionID",
          "type": "bytes32"
        },
        {
          "internalType": "address",
          "name": "_requester",
          "type": "address"
        }
      ],
      "name": "handleFailedDisputeCreation",
      "outputs": [],
      "stateMutability": "nonpayable",
      "type": "function"
    },
    {
      "inputs": [],
      "name": "homeProxy",
      "outputs": [
        {
          "internalType": "address",
          "name": "",
          "type": "address"
        }
      ],
      "stateMutability": "view",
      "type": "function"
    },
    {
      "inputs": [],
      "name": "loserAppealPeriodMultiplier",
      "outputs": [
        {
          "internalType": "uint256",
          "name": "",
          "type": "uint256"
        }
      ],
      "stateMutability": "view",
      "type": "function"
    },
    {
      "inputs": [],
      "name": "loserMultiplier",
      "outputs": [
        {
          "internalType": "uint256",
          "name": "",
          "type": "uint256"
        }
      ],
      "stateMutability": "view",
      "type": "function"
    },
    {
      "inputs": [],
      "name": "messenger",
      "outputs": [
        {
          "internalType": "contract ICrossDomainMessenger",
          "name": "",
          "type": "address"
        }
      ],
      "stateMutability": "view",
      "type": "function"
    },
    {
      "inputs": [],
      "name": "metaEvidenceUpdates",
      "outputs": [
        {
          "internalType": "uint256",
          "name": "",
          "type": "uint256"
        }
      ],
      "stateMutability": "view",
      "type": "function"
    },
    {
      "inputs": [],
      "name": "minGasLimit",
      "outputs": [
        {
          "internalType": "uint32",
          "name": "",
          "type": "uint32"
        }
      ],
      "stateMutability": "view",
      "type": "function"
    },
    {
      "inputs": [
        {
          "internalType": "uint256",
          "name": "",
          "type": "uint256"
        }
      ],
      "name": "numberOfRulingOptions",
      "outputs": [
        {
          "internalType": "uint256",
          "name": "",
          "type": "uint256"
        }
      ],
      "stateMutability": "pure",
      "type": "function"
    },
    {
      "inputs": [
        {
          "internalType": "bytes32",
          "name": "_questionID",
          "type": "bytes32"
        }
      ],
      "name": "questionIDToArbitrationID",
      "outputs": [
        {
          "internalType": "uint256",
          "name": "",
          "type": "uint256"
        }
      ],
      "stateMutability": "pure",
      "type": "function"
    },
    {
      "inputs": [
        {
          "internalType": "bytes32",
          "name": "_questionID",
          "type": "bytes32"
        },
        {
          "internalType": "address",
          "name": "_requester",
          "type": "address"
        }
      ],
      "name": "receiveArbitrationAcknowledgement",
      "outputs": [],
      "stateMutability": "nonpayable",
      "type": "function"
    },
    {
      "inputs": [
        {
          "internalType": "bytes32",
          "name": "_questionID",
          "type": "bytes32"
        },
        {
          "internalType": "address",
          "name": "_requester",
          "type": "address"
        }
      ],
      "name": "receiveArbitrationCancelation",
      "outputs": [],
      "stateMutability": "nonpayable",
      "type": "function"
    },
    {
      "inputs": [
        {
          "internalType": "bytes32",
          "name": "_questionID",
          "type": "bytes32"
        },
        {
          "internalType": "address",
          "name": "_requester",
          "type": "address"
        }
      ],
      "name": "relayRule",
      "outputs": [],
      "stateMutability": "nonpayable",
      "type": "function"
    },
    {
      "inputs": [
        {
          "internalType": "bytes32",
          "name": "_questionID",
          "type": "bytes32"
        },
        {
          "internalType": "uint256",
          "name": "_maxPrevious",
          "type": "uint256"
        }
      ],
      "name": "requestArbitration",
      "outputs": [],
      "stateMutability": "payable",
      "type": "function"
    },
    {
      "inputs": [
        {
          "internalType": "uint256",
          "name": "_disputeID",
          "type": "uint256"
        },
        {
          "internalType": "uint256",
          "name": "_ruling",
          "type": "uint256"
        }
      ],
      "name": "rule",
      "outputs": [],
      "stateMutability": "nonpayable",
      "type": "function"
    },
    {
      "inputs": [
        {
          "internalType": "uint256",
          "name": "_arbitrationID",
          "type": "uint256"
        },
        {
          "internalType": "string",
          "name": "_evidenceURI",
          "type": "string"
        }
      ],
      "name": "submitEvidence",
      "outputs": [],
      "stateMutability": "nonpayable",
      "type": "function"
    },
    {
      "inputs": [],
      "name": "winnerMultiplier",
      "outputs": [
        {
          "internalType": "uint256",
          "name": "",
          "type": "uint256"
        }
      ],
      "stateMutability": "view",
      "type": "function"
    },
    {
      "inputs": [
        {
          "internalType": "uint256",
          "name": "_arbitrationID",
          "type": "uint256"
        },
        {
          "internalType": "address payable",
          "name": "_beneficiary",
          "type": "address"
        },
        {
          "internalType": "uint256",
          "name": "_round",
          "type": "uint256"
        },
        {
          "internalType": "uint256",
          "name": "_answer",
          "type": "uint256"
        }
      ],
      "name": "withdrawFeesAndRewards",
      "outputs": [
        {
          "internalType": "uint256",
          "name": "reward",
          "type": "uint256"
        }
      ],
      "stateMutability": "nonpayable",
      "type": "function"
    },
    {
      "inputs": [
        {
          "internalType": "uint256",
          "name": "_arbitrationID",
          "type": "uint256"
        },
        {
          "internalType": "address payable",
          "name": "_beneficiary",
          "type": "address"
        },
        {
          "internalType": "uint256",
          "name": "_contributedTo",
          "type": "uint256"
        }
      ],
      "name": "withdrawFeesAndRewardsForAllRounds",
      "outputs": [],
      "stateMutability": "nonpayable",
      "type": "function"
    }
  ],
  "transactionHash": "0x45d8617410a1289b2313577cb065ee852dbd589262ec7b433fd36e5a7126f812",
  "args": [
    "0x58Cc85b8D04EA49cC6DBd3CbFFd00B4B8D6cb3ef",
    "0x8B41E466D0fc096e75B5aaDE8F8418FF1a7CCC3e",
    "0x501e0636c64b28840e0C38409Beb87d6BdfA835A",
    "0x90992fb4E15ce0C59aEFfb376460Fda4Ee19C879",
    "0x00000000000000000000000000000000000000000000000000000000000000000000000000000000000000000000000000000000000000000000000000000000",
    "/ipfs/bafybeieabr4vshl3jq2jlwwtqai4zt3c2rlkds4prrjfcxuhkck6sdhile/",
    [
      3000,
      7000,
      5000
    ]
  ],
  "numDeployments": 1,
  "solcInputHash": "46c51b9b2ce28eaddfe25d08b6472945",
  "bytecode": "0x60a06040526000805463ffffffff60a01b191661b71b60a51b17905534801561002757600080fd5b50604051613c58380380613c58833981016040819052610046916101cb565b600080546001600160a01b03808a166001600160a01b03199283161790925587821660805260018054888416908316179055600280549287169290911691909117905560036100958482610372565b508051600555602081015160065560408082015160075560045490517f61606860eb6c87306811e2695215385101daab53bd6ab4e9f9049aead9363c7d906100de908590610431565b60405180910390a250505050505050610464565b6001600160a01b038116811461010757600080fd5b50565b634e487b7160e01b600052604160045260246000fd5b60005b8381101561013b578181015183820152602001610123565b50506000910152565b600082601f83011261015557600080fd5b81516001600160401b038082111561016f5761016f61010a565b604051601f8301601f19908116603f011681019082821181831017156101975761019761010a565b816040528381528660208588010111156101b057600080fd5b6101c1846020830160208901610120565b9695505050505050565b600080600080600080600061012080898b0312156101e857600080fd5b88516101f3816100f2565b809850506020808a0151610206816100f2565b60408b0151909850610217816100f2565b60608b0151909750610228816100f2565b60808b01519096506001600160401b038082111561024557600080fd5b6102518d838e01610144565b965060a08c015191508082111561026757600080fd5b6102738d838e01610144565b95508c60df8d011261028457600080fd5b60405191506060820182811082821117156102a1576102a161010a565b60405250918a0191808c8411156102b757600080fd5b60c08c015b848110156102d357805182529083019083016102bc565b505080935050505092959891949750929550565b600181811c908216806102fb57607f821691505b60208210810361031b57634e487b7160e01b600052602260045260246000fd5b50919050565b601f82111561036d576000816000526020600020601f850160051c8101602086101561034a5750805b601f850160051c820191505b8181101561036957828155600101610356565b5050505b505050565b81516001600160401b0381111561038b5761038b61010a565b61039f8161039984546102e7565b84610321565b602080601f8311600181146103d457600084156103bc5750858301515b600019600386901b1c1916600185901b178555610369565b600085815260208120601f198616915b82811015610403578886015182559484019460019091019084016103e4565b50858210156104215787850151600019600388901b60f8161c191681555b5050505050600190811b01905550565b6020815260008251806020840152610450816040850160208701610120565b601f01601f19169190910160400192915050565b6080516137b66104a2600039600081816103ef0152818161107a015281816118a101528181611ef001528181612128015261258801526137b66000f3fe60806040526004361061027d5760003560e01c80638a9bb02a1161014f578063be26fc88116100c1578063e742e2ed1161007a578063e742e2ed14610851578063ec85635b14610871578063edabc47414610891578063fc6f8f16146108c4578063fe2dddeb14610911578063ffa1ad741461093157600080fd5b8063be26fc881461076a578063c21ae0611461078a578063c599c66f146107cd578063c94828f0146107fb578063d661dd311461081b578063e4c0aaf41461083157600080fd5b8063a6a7f0eb11610113578063a6a7f0eb146106a4578063a829c3d1146106c4578063b2a83453146106d7578063ba7079ca146106f7578063bb16378214610717578063bb2fe65f1461073557600080fd5b80638a9bb02a146106075780638d8b2d7e14610636578063965394ab146106585780639b3ac9981461066e578063a22352e21461068457600080fd5b80634aa6a1e4116101f35780636cc6cde1116101ac5780636cc6cde1146105425780636cdc090f14610562578063756804c01461057857806379873f8a146105ae5780637a7104911461032757806384cbc5d4146105e757600080fd5b80634aa6a1e4146104115780634b2f0ea0146104315780635082a7991461045457806350f9c11a146104745780635aeb4d77146104d957806368cb30f51461051257600080fd5b80631355d0a6116102455780631355d0a61461033d578063311a6c561461035d578063325df1881461037d578063362c34791461039d5780633cb747bf146103bd57806348f37857146103dd57600080fd5b806305528715146102825780630c139eb4146102a45780630c340a24146102cd5780630c7ac7b6146103055780630fa8c7ce14610327575b600080fd5b34801561028e57600080fd5b506102a261029d366004612ded565b610962565b005b3480156102b057600080fd5b506102ba60075481565b6040519081526020015b60405180910390f35b3480156102d957600080fd5b506001546102ed906001600160a01b031681565b6040516001600160a01b0390911681526020016102c4565b34801561031157600080fd5b5061031a61099a565b6040516102c49190612e4c565b34801561033357600080fd5b506102ba60001981565b34801561034957600080fd5b506102a2610358366004612e5f565b610a28565b34801561036957600080fd5b506102a2610378366004612e85565b610a78565b34801561038957600080fd5b506102a2610398366004612ded565b610c03565b3480156103a957600080fd5b506102ba6103b8366004612ebc565b610c32565b3480156103c957600080fd5b506000546102ed906001600160a01b031681565b3480156103e957600080fd5b506102ed7f000000000000000000000000000000000000000000000000000000000000000081565b34801561041d57600080fd5b506102a261042c366004612ef9565b610f19565b61044461043f366004612e85565b611124565b60405190151581526020016102c4565b34801561046057600080fd5b506102a261046f366004612ef9565b61177d565b34801561048057600080fd5b506104bc61048f366004612f29565b6009602090815260009283526040808420909152908252902080546001909101546001600160a01b031682565b604080519283526001600160a01b039091166020830152016102c4565b3480156104e557600080fd5b506000546104fd90600160a01b900463ffffffff1681565b60405163ffffffff90911681526020016102c4565b34801561051e57600080fd5b5061044461052d366004612ded565b600a6020526000908152604090205460ff1681565b34801561054e57600080fd5b506002546102ed906001600160a01b031681565b34801561056e57600080fd5b506102ba60045481565b34801561058457600080fd5b506102ed610593366004612ded565b600b602052600090815260409020546001600160a01b031681565b3480156105ba57600080fd5b506005546006546007546127106040805194855260208501939093529183015260608201526080016102c4565b3480156105f357600080fd5b506102a2610602366004612f6b565b61194d565b34801561061357600080fd5b50610627610622366004612e85565b6119c9565b6040516102c493929190613058565b34801561064257600080fd5b506102ba610651366004612ded565b5060001990565b34801561066457600080fd5b506102ba60065481565b34801561067a57600080fd5b506102ba60055481565b34801561069057600080fd5b506102ba61069f366004612ded565b611b41565b3480156106b057600080fd5b506102a26106bf3660046130d6565b611bb4565b6102a26106d2366004612e85565b611c96565b3480156106e357600080fd5b506102a26106f2366004613122565b611f99565b34801561070357600080fd5b506102a261071236600461313f565b611fe5565b34801561072357600080fd5b506102ba610732366004612ded565b90565b34801561074157600080fd5b5061075561075036600461317b565b61203d565b604080519283529015156020830152016102c4565b34801561077657600080fd5b506102a2610785366004612ef9565b6120c1565b34801561079657600080fd5b506102ba6107a5366004612ded565b6002546001600160a01b03166000908152600960209081526040808320938352929052205490565b3480156107d957600080fd5b506107ed6107e83660046131a7565b612328565b6040516102c49291906131e0565b34801561080757600080fd5b506102a2610816366004612ded565b6124a6565b34801561082757600080fd5b506102ba61271081565b34801561083d57600080fd5b506102a261084c366004613122565b6124d5565b34801561085d57600080fd5b506102a261086c366004612ef9565b612521565b34801561087d57600080fd5b506102ba61088c36600461320e565b6129a3565b34801561089d57600080fd5b506108b16108ac366004612ef9565b612bf0565b6040516102c4979695949392919061325c565b3480156108d057600080fd5b506102ba6108df366004612ded565b6000908152600b6020908152604080832054600883528184206001600160a01b03909116845290915290206003015490565b34801561091d57600080fd5b506102a261092c36600461320e565b612cd5565b34801561093d57600080fd5b5061031a604051806040016040528060058152602001640322e302e360dc1b81525081565b6001546001600160a01b031633146109955760405162461bcd60e51b815260040161098c906132d4565b60405180910390fd5b600655565b600380546109a790613309565b80601f01602080910402602001604051908101604052809291908181526020018280546109d390613309565b8015610a205780601f106109f557610100808354040283529160200191610a20565b820191906000526020600020905b815481529060010190602001808311610a0357829003601f168201915b505050505081565b6001546001600160a01b03163314610a525760405162461bcd60e51b815260040161098c906132d4565b6000805463ffffffff909216600160a01b0263ffffffff60a01b19909216919091179055565b336000818152600960209081526040808320868452825280832080546001820154818652600885528386206001600160a01b039182168088529552929094206004810154919590929190911614610b115760405162461bcd60e51b815260206004820152601760248201527f4f6e6c792061726269747261746f7220616c6c6f776564000000000000000000604482015260640161098c565b6002815460ff166005811115610b2957610b29613246565b14610b465760405162461bcd60e51b815260040161098c90613343565b6003810180548691600091610b5d90600190613390565b81548110610b6d57610b6d6133a3565b906000526020600020906005020190508060040180549050600103610bb05780600401600081548110610ba257610ba26133a3565b906000526020600020015491505b60028301829055825460ff19166003178355604051828152889033907f394027a5fa6e098a1191094d1719d6929b9abc535fcc0c8f448d6a4e756222769060200160405180910390a35050505050505050565b6001546001600160a01b03163314610c2d5760405162461bcd60e51b815260040161098c906132d4565b600555565b6000848152600b6020908152604080832054600883528184206001600160a01b039091168085529252822060038101805484919087908110610c7657610c766133a3565b6000918252602090912060059091020190506003825460ff166005811115610ca057610ca0613246565b14610ce45760405162461bcd60e51b8152602060048201526014602482015273111a5cdc1d5d19481b9bdd081c995cdbdb1d995960621b604482015260640161098c565b600085815260018201602052604090205460ff16610d29576001600160a01b038716600090815260028201602090815260408083208884529091529020549350610e7f565b6002820154600090815260018201602052604090205460ff16610e15576004810154600110610d59576000610e0e565b80600001600082600401600181548110610d7557610d756133a3565b906000526020600020015481526020019081526020016000205481600001600083600401600081548110610dab57610dab6133a3565b9060005260206000200154815260200190815260200160002054610dcf91906133b9565b60038201546001600160a01b038916600090815260028401602090815260408083208a8452909152902054610e0491906133cc565b610e0e91906133e3565b9350610e7f565b84826002015403610e7f5760008581526020829052604090205480610e3b576000610e7b565b60038201546001600160a01b038916600090815260028401602090815260408083208a84529091529020548291610e71916133cc565b610e7b91906133e3565b9450505b8315610f0e576001600160a01b038716600081815260028301602090815260408083208984529091528082208290555186156108fc0291879190818181858888f1505060408051898152602081018990526001600160a01b038c1694508a93508c92507f54b3cab3cb5c4aca3209db1151caff092e878011202e43a36782d4ebe0b963ae910160405180910390a45b505050949350505050565b60008281526008602090815260408083206001600160a01b0385168452909152902082906005815460ff166005811115610f5557610f55613246565b14610f725760405162461bcd60e51b815260040161098c90613343565b60408051602481018690526001600160a01b03851660448083018290528351808403909101815260649092018352602080830180516001600160e01b03166305fb2b4f60e51b90811790915285546000888152600884528681209481529390925293822082815560018101839055600281018390556101009091046001600160f81b0316916110046003830182612d31565b6004820180546001600160a01b0319169055611024600583016000612d55565b5060006006919091018190556040516001600160a01b0388169183156108fc02918491818181858888f15050600054604051633dbb202b60e01b81526001600160a01b0382169450633dbb202b93506110b392507f0000000000000000000000000000000000000000000000000000000000000000918791600160a01b90910463ffffffff1690600401613405565b600060405180830381600087803b1580156110cd57600080fd5b505af11580156110e1573d6000803e3d6000fd5b50506040516001600160a01b03891692508991507fe7700735be0b02f71ef1d623678daf36cd936af4c349a22ad9d5a8b217df0dd990600090a350505050505050565b6000828152600860209081526040808320600b8352818420546001600160a01b0316845290915281206002815460ff16600581111561116557611165613246565b146111aa5760405162461bcd60e51b81526020600482015260156024820152742737903234b9b83aba32903a379030b83832b0b61760591b604482015260640161098c565b600181015460048083015460405163afe15cfb60e01b815291820183905260009182916001600160a01b03169063afe15cfb906024016040805180830381865afa1580156111fc573d6000803e3d6000fd5b505050506040513d601f19601f82011682018060405250810190611220919061343f565b9150915081421015801561123357508042105b6112785760405162461bcd60e51b815260206004820152601660248201527520b83832b0b6103832b934b7b21034b99037bb32b91760511b604482015260640161098c565b600484810154604051631c3db16d60e01b815291820185905260009182916001600160a01b031690631c3db16d90602401602060405180830381865afa1580156112c6573d6000803e3d6000fd5b505050506040513d601f19601f820116820180604052508101906112ea9190613463565b90508781036112fd57600554915061137f565b6007546127109061130e8686613390565b61131891906133cc565b61132291906133e3565b61132c8542613390565b106113795760405162461bcd60e51b815260206004820152601f60248201527f41707065616c20706572696f64206973206f76657220666f72206c6f73657200604482015260640161098c565b60065491505b50600385015460009061139490600190613390565b905060008660030182815481106113ad576113ad6133a3565b600091825260208083208c84526001600590930201918201905260409091205490915060ff16156114205760405162461bcd60e51b815260206004820152601b60248201527f41707065616c2066656520697320616c726561647920706169642e0000000000604482015260640161098c565b60048088015460405163791f8b7360e11b81526000926001600160a01b039092169163f23f16e691611459918b9160058e0191016134f9565b602060405180830381865afa158015611476573d6000803e3d6000fd5b505050506040513d601f19601f8201168201806040525081019061149a9190613463565b905060006127106114ab86846133cc565b6114b591906133e3565b6114bf90836133b9565b60008c8152602085905260408120549192509034906114de9084613390565b116115015760008c8152602085905260409020546114fc9083613390565b611503565b345b9050336001600160a01b0316858e7fcae597f39a3ad75c2e10d46b031f023c5c2babcd58ca0491b122acda3968d4c08f8560405161154b929190918252602082015260400190565b60405180910390a433600090815260028501602090815260408083208f84529091528120805483929061157f9084906133b9565b909155505060008c815260208590526040812080548392906115a29084906133b9565b909155505060008c81526020859052604090205482116116705760008c815260208590526040812054600386018054919290916115e09084906133b9565b92505081905550836004018c908060018154018082558091505060019003906000526020600020016000909190919091505560018460010160008e815260200190815260200160002060006101000a81548160ff0219169083151502179055508b858e7f39493c1b78d9a13bcc9e1d532fc7faed3889248d93affa811416ce3c6bcb1a6860405160405180910390a45b60048401546001101561171e576003808b018054600101815560005284015461169a908490613390565b84600301819055508960040160009054906101000a90046001600160a01b03166001600160a01b03166349912f88848b8d6005016040518463ffffffff1660e01b81526004016116eb9291906134f9565b6000604051808303818588803b15801561170457600080fd5b505af1158015611718573d6000803e3d6000fd5b50505050505b600061172a8234613390565b111561175657336108fc61173e8334613390565b6040518115909202916000818181858888f150505050505b50505060008981526001909101602052604090205460ff1696505050505050505b92915050565b60008281526008602090815260408083206001600160a01b0385168452909152902082906003815460ff1660058111156117b9576117b9613246565b146117fd5760405162461bcd60e51b8152602060048201526014602482015273111a5cdc1d5d19481b9bdd081c995cdbdb1d995960621b604482015260640161098c565b6000816002015460000361181357600019611824565b600182600201546118249190613390565b6040805160248101889052604480820184905282518083039091018152606490910182526020810180516306bad43760e51b6001600160e01b0390911681179091528554600460ff19909116811787556000549351633dbb202b60e01b8152949550909391926001600160a01b03811692633dbb202b926118d8927f0000000000000000000000000000000000000000000000000000000000000000928792600160a01b90920463ffffffff169101613405565b600060405180830381600087803b1580156118f257600080fd5b505af1158015611906573d6000803e3d6000fd5b5050604080518a8152602081018790527fba07eb273dd4b62b682a13480e2838bfbd6afab07919d6bcad9156af107f8c41935001905060405180910390a150505050505050565b6001546001600160a01b031633146119775760405162461bcd60e51b815260040161098c906132d4565b600480549060006119878361351a565b91905055506004547f61606860eb6c87306811e2695215385101daab53bd6ab4e9f9049aead9363c7d826040516119be9190612e4c565b60405180910390a250565b6000828152600b6020908152604080832054600883528184206001600160a01b03909116808552925282206003810180546060949385939092909185919088908110611a1757611a176133a3565b9060005260206000209060050201905080600401805480602002602001604051908101604052809291908181526020018280548015611a7557602002820191906000526020600020905b815481526020019060010190808311611a61575b5050506004840154929650505067ffffffffffffffff811115611a9a57611a9a612f55565b604051908082528060200260200182016040528015611ac3578160200160208202803683370190505b50955060005b6004820154811015611b2f57816000016000836004018381548110611af057611af06133a3565b9060005260206000200154815260200190815260200160002054878281518110611b1c57611b1c6133a3565b6020908102919091010152600101611ac9565b50806003015494505050509250925092565b60025460405163f7434ea960e01b81526000916001600160a01b03169063f7434ea990611b7390600390600401613533565b602060405180830381865afa158015611b90573d6000803e3d6000fd5b505050506040513d601f19601f820116820180604052508101906117779190613463565b6000838152600b6020908152604080832054600883528184206001600160a01b039182168086529352922060048101549192909116611c3f57600254604051339187916001600160a01b03909116907fdccf2f8b2cc26eafcd61905cba744cff4b81d14740725f6376390dc6298a6a3c90611c329089908990613546565b60405180910390a4611c8f565b6004810154604051339187916001600160a01b03909116907fdccf2f8b2cc26eafcd61905cba744cff4b81d14740725f6376390dc6298a6a3c90611c869089908990613546565b60405180910390a45b5050505050565b6000828152600a602052604090205460ff1615611cf55760405162461bcd60e51b815260206004820152601760248201527f4469737075746520616c72656164792063726561746564000000000000000000604482015260640161098c565b6000828152600860209081526040808320338452909152812090815460ff166005811115611d2557611d25613246565b14611d725760405162461bcd60e51b815260206004820152601d60248201527f4172626974726174696f6e20616c726561647920726571756573746564000000604482015260640161098c565b6002546004820180546001600160a01b0319166001600160a01b0390921691909117905560058101611da56003826135c6565b506004805460068301556040805160248101869052336044820152606480820186905282518083039091018152608490910182526020810180516001600160e01b031663666b746960e11b908117909152600254925163f7434ea960e01b8152909391926000926001600160a01b039091169163f7434ea991611e2b9160039101613533565b602060405180830381865afa158015611e48573d6000803e3d6000fd5b505050506040513d601f19601f82011682018060405250810190611e6c9190613463565b905080341015611eb65760405162461bcd60e51b81526020600482015260156024820152744465706f7369742076616c756520746f6f206c6f7760581b604482015260640161098c565b6001610100346001600160f81b031602178455600054604051633dbb202b60e01b81526001600160a01b03821691633dbb202b91611f28917f0000000000000000000000000000000000000000000000000000000000000000918791600160a01b900463ffffffff1690600401613405565b600060405180830381600087803b158015611f4257600080fd5b505af1158015611f56573d6000803e3d6000fd5b50506040518781523392508891507f2067d1b3170fe803dd001b95b04f9d372eb9c3e5a48ed131a62962a7300bdb209060200160405180910390a3505050505050565b6001546001600160a01b03163314611fc35760405162461bcd60e51b815260040161098c906132d4565b600080546001600160a01b0319166001600160a01b0392909216919091179055565b6001546001600160a01b0316331461200f5760405162461bcd60e51b815260040161098c906132d4565b600280546001600160a01b0319166001600160a01b03851617905560036120378284836136a3565b50505050565b6000838152600b6020908152604080832054600883528184206001600160a01b039091168085529252822060038101805484939291849188908110612084576120846133a3565b600091825260208083209883526005909102909701808852604080832054600190920190985296902054959860ff90961697509495505050505050565b6000546001600160a01b0316331461210b5760405162461bcd60e51b815260206004820152600d60248201526c2727aa2fa6a2a9a9a2a723a2a960991b604482015260640161098c565b60005460408051636e296e4560e01b815290516001600160a01b037f00000000000000000000000000000000000000000000000000000000000000008116931691636e296e459160048083019260209291908290030181865afa158015612176573d6000803e3d6000fd5b505050506040513d601f19601f8201168201806040525081019061219a9190613763565b6001600160a01b0316146121f05760405162461bcd60e51b815260206004820181905260248201527f43616e206f6e6c792062652063616c6c656420627920486f6d652070726f7879604482015260640161098c565b60008281526008602090815260408083206001600160a01b0385168452909152902082906001815460ff16600581111561222c5761222c613246565b146122495760405162461bcd60e51b815260040161098c90613343565b805460008381526008602090815260408083206001600160a01b0388168452909152812081815560018101829055600281018290556101009092046001600160f81b0316919061229c6003830182612d31565b6004820180546001600160a01b03191690556122bc600583016000612d55565b5060006006919091018190556040516001600160a01b0386169183156108fc02918491818181858888f150506040516001600160a01b03881693508892507fe7700735be0b02f71ef1d623678daf36cd936af4c349a22ad9d5a8b217df0dd99150600090a35050505050565b6000838152600b6020908152604080832054600883528184206001600160a01b039091168085529252822060038101805460609485949392909188908110612372576123726133a3565b90600052602060002090600502019050806004018054806020026020016040519081016040528092919081815260200182805480156123d057602002820191906000526020600020905b8154815260200190600101908083116123bc575b5050506004840154929750505067ffffffffffffffff8111156123f5576123f5612f55565b60405190808252806020026020018201604052801561241e578160200160208202803683370190505b50935060005b845181101561249a576001600160a01b03871660009081526002830160205260408120875190919088908490811061245e5761245e6133a3565b6020026020010151815260200190815260200160002054858281518110612487576124876133a3565b6020908102919091010152600101612424565b50505050935093915050565b6001546001600160a01b031633146124d05760405162461bcd60e51b815260040161098c906132d4565b600755565b6001546001600160a01b031633146124ff5760405162461bcd60e51b815260040161098c906132d4565b600180546001600160a01b0319166001600160a01b0392909216919091179055565b6000546001600160a01b0316331461256b5760405162461bcd60e51b815260206004820152600d60248201526c2727aa2fa6a2a9a9a2a723a2a960991b604482015260640161098c565b60005460408051636e296e4560e01b815290516001600160a01b037f00000000000000000000000000000000000000000000000000000000000000008116931691636e296e459160048083019260209291908290030181865afa1580156125d6573d6000803e3d6000fd5b505050506040513d601f19601f820116820180604052508101906125fa9190613763565b6001600160a01b0316146126505760405162461bcd60e51b815260206004820181905260248201527f43616e206f6e6c792062652063616c6c656420627920486f6d652070726f7879604482015260640161098c565b60008281526008602090815260408083206001600160a01b0385168452909152902082906001815460ff16600581111561268c5761268c613246565b146126a95760405162461bcd60e51b815260040161098c90613343565b60048082015460405163f7434ea960e01b81526000926001600160a01b039092169163f7434ea9916126e091600587019101613533565b602060405180830381865afa1580156126fd573d6000803e3d6000fd5b505050506040513d601f19601f820116820180604052508101906127219190613463565b825490915061010090046001600160f81b0316811161295b5760048083015460405163c13517e160e01b81526001600160a01b039091169163c13517e191849161277491600019916005890191016134f9565b60206040518083038185885af1935050505080156127af575060408051601f3d908101601f191682019092526127ac91810190613463565b60015b6127f957815460ff191660051782556040516001600160a01b0385169086907f9beda0c81abc1c65da7685f113195974dfddb781dfde6263e5a1b13a5356ffad90600090a3611c8f565b60048301546001600160a01b0390811660009081526009602090815260408083208584528252808320888155600180820180546001600160a01b0319908116978d169788179091558a8652600a8552838620805460ff1916909217909155600b90935290832080549092169093179055845461288490859061010090046001600160f81b0316613390565b6002865560018087018590556003870180549091018155600052905080156128cc576040516001600160a01b0388169082156108fc029083906000818181858888f150505050505b82876001600160a01b0316897fcf9bcbc2efae51060af73ef64119281007f63eada739f19c41c181d8350fa81460405160405180910390a460048501546006860154604080519182526020820189905285926001600160a01b0316917f74baab670a4015ab2f1b467c5252a96141a2573f2908e58a92081e80d3cfde3d910160405180910390a3505050611c8f565b815460ff191660051782556040516001600160a01b0385169086907f9beda0c81abc1c65da7685f113195974dfddb781dfde6263e5a1b13a5356ffad90600090a35050505050565b6000838152600b6020908152604080832054600883528184206001600160a01b03909116808552925282206003815460ff1660058111156129e6576129e6613246565b10156129f3575050612be9565b6002810154600382015460005b81811015612be3576000846003018281548110612a1f57612a1f6133a3565b600091825260208083208b84526001600590930201918201905260409091205490915060ff16612a80576001600160a01b038916600090815260028201602090815260408083208b8452909152902054612a7990886133b9565b9650612bda565b600084815260018201602052604090205460ff16612b6a576004810154600110612aab576000612b60565b80600001600082600401600181548110612ac757612ac76133a3565b906000526020600020015481526020019081526020016000205481600001600083600401600081548110612afd57612afd6133a3565b9060005260206000200154815260200190815260200160002054612b2191906133b9565b60038201546001600160a01b038b16600090815260028401602090815260408083208d8452909152902054612b5691906133cc565b612b6091906133e3565b612a7990886133b9565b878403612bda5760008881526020829052604090205480612b8c576000612bcc565b60038201546001600160a01b038b16600090815260028401602090815260408083208d84529091529020548291612bc2916133cc565b612bcc91906133e3565b612bd690896133b9565b9750505b50600101612a00565b50505050505b9392505050565b60086020908152600092835260408084209091529082529020805460018201546002830154600484015460058501805460ff8616966101009096046001600160f81b0316956001600160a01b03909316929190612c4c90613309565b80601f0160208091040260200160405190810160405280929190818152602001828054612c7890613309565b8015612cc55780601f10612c9a57610100808354040283529160200191612cc5565b820191906000526020600020905b815481529060010190602001808311612ca857829003601f168201915b5050505050908060060154905087565b6000838152600b6020908152604080832054600883528184206001600160a01b0390911680855292528220600381015491929091905b81811015612d2857612d1f87878388610c32565b50600101612d0b565b50505050505050565b5080546000825560050290600052602060002090810190612d529190612d8f565b50565b508054612d6190613309565b6000825580601f10612d71575050565b601f016020900490600052602060002090810190612d529190612dba565b80821115612db657600060038201819055612dad6004830182612dcf565b50600501612d8f565b5090565b5b80821115612db65760008155600101612dbb565b5080546000825590600052602060002090810190612d529190612dba565b600060208284031215612dff57600080fd5b5035919050565b6000815180845260005b81811015612e2c57602081850181015186830182015201612e10565b506000602082860101526020601f19601f83011685010191505092915050565b602081526000612be96020830184612e06565b600060208284031215612e7157600080fd5b813563ffffffff81168114612be957600080fd5b60008060408385031215612e9857600080fd5b50508035926020909101359150565b6001600160a01b0381168114612d5257600080fd5b60008060008060808587031215612ed257600080fd5b843593506020850135612ee481612ea7565b93969395505050506040820135916060013590565b60008060408385031215612f0c57600080fd5b823591506020830135612f1e81612ea7565b809150509250929050565b60008060408385031215612f3c57600080fd5b8235612f4781612ea7565b946020939093013593505050565b634e487b7160e01b600052604160045260246000fd5b600060208284031215612f7d57600080fd5b813567ffffffffffffffff80821115612f9557600080fd5b818401915084601f830112612fa957600080fd5b813581811115612fbb57612fbb612f55565b604051601f8201601f19908116603f01168101908382118183101715612fe357612fe3612f55565b81604052828152876020848701011115612ffc57600080fd5b826020860160208301376000928101602001929092525095945050505050565b60008151808452602080850194506020840160005b8381101561304d57815187529582019590820190600101613031565b509495945050505050565b60608152600061306b606083018661301c565b8460208401528281036040840152613083818561301c565b9695505050505050565b60008083601f84011261309f57600080fd5b50813567ffffffffffffffff8111156130b757600080fd5b6020830191508360208285010111156130cf57600080fd5b9250929050565b6000806000604084860312156130eb57600080fd5b83359250602084013567ffffffffffffffff81111561310957600080fd5b6131158682870161308d565b9497909650939450505050565b60006020828403121561313457600080fd5b8135612be981612ea7565b60008060006040848603121561315457600080fd5b833561315f81612ea7565b9250602084013567ffffffffffffffff81111561310957600080fd5b60008060006060848603121561319057600080fd5b505081359360208301359350604090920135919050565b6000806000606084860312156131bc57600080fd5b833592506020840135915060408401356131d581612ea7565b809150509250925092565b6040815260006131f3604083018561301c565b8281036020840152613205818561301c565b95945050505050565b60008060006060848603121561322357600080fd5b83359250602084013561323581612ea7565b929592945050506040919091013590565b634e487b7160e01b600052602160045260246000fd5b60006006891061327c57634e487b7160e01b600052602160045260246000fd5b8882526001600160f81b038816602083015260408201879052606082018690526001600160a01b038516608083015260e060a083018190526132c090830185612e06565b90508260c083015298975050505050505050565b6020808252818101527f5468652063616c6c6572206d7573742062652074686520676f7665726e6f722e604082015260600190565b600181811c9082168061331d57607f821691505b60208210810361333d57634e487b7160e01b600052602260045260246000fd5b50919050565b6020808252601a908201527f496e76616c6964206172626974726174696f6e20737461747573000000000000604082015260600190565b634e487b7160e01b600052601160045260246000fd5b818103818111156117775761177761337a565b634e487b7160e01b600052603260045260246000fd5b808201808211156117775761177761337a565b80820281158282048414176117775761177761337a565b60008261340057634e487b7160e01b600052601260045260246000fd5b500490565b6001600160a01b038416815260606020820181905260009061342990830185612e06565b905063ffffffff83166040830152949350505050565b6000806040838503121561345257600080fd5b505080516020909101519092909150565b60006020828403121561347557600080fd5b5051919050565b6000815461348981613309565b8085526020600183811680156134a657600181146134c0576134ee565b60ff1985168884015283151560051b8801830195506134ee565b866000528260002060005b858110156134e65781548a82018601529083019084016134cb565b890184019650505b505050505092915050565b828152604060208201526000613512604083018461347c565b949350505050565b60006001820161352c5761352c61337a565b5060010190565b602081526000612be9602083018461347c565b60208152816020820152818360408301376000818301604090810191909152601f909201601f19160101919050565b601f8211156135c1576000816000526020600020601f850160051c8101602086101561359e5750805b601f850160051c820191505b818110156135bd578281556001016135aa565b5050505b505050565b8181036135d1575050565b6135db8254613309565b67ffffffffffffffff8111156135f3576135f3612f55565b613607816136018454613309565b84613575565b6000601f82116001811461363b57600083156136235750848201545b600019600385901b1c1916600184901b178455611c8f565b600085815260209020601f19841690600086815260209020845b838110156136755782860154825560019586019590910190602001613655565b50858310156136935781850154600019600388901b60f8161c191681555b5050505050600190811b01905550565b67ffffffffffffffff8311156136bb576136bb612f55565b6136cf836136c98354613309565b83613575565b6000601f84116001811461370357600085156136eb5750838201355b600019600387901b1c1916600186901b178355611c8f565b600083815260209020601f19861690835b828110156137345786850135825560209485019460019092019101613714565b50868210156137515760001960f88860031b161c19848701351681555b505060018560011b0183555050505050565b60006020828403121561377557600080fd5b8151612be981612ea756fea264697066735822122016997f1a28670bf42100e331c54a16b7239111944c5dd9977e090bf88d0cff0d64736f6c63430008190033",
  "devdoc": {
    "events": {
      "ArbitrationCanceled(bytes32,address)": {
        "params": {
          "_questionID": "The ID of the question with the request for arbitration.",
          "_requester": "The address of the arbitration requester."
        }
      },
      "ArbitrationCreated(bytes32,address,uint256)": {
        "params": {
          "_disputeID": "The ID of the dispute.",
          "_questionID": "The ID of the question with the request for arbitration.",
          "_requester": "The address of the arbitration requester."
        }
      },
      "ArbitrationFailed(bytes32,address)": {
        "details": "This will happen if there is an increase in the arbitration fees between the time the arbitration is made and the time it is acknowledged.",
        "params": {
          "_questionID": "The ID of the question with the request for arbitration.",
          "_requester": "The address of the arbitration requester."
        }
      },
      "ArbitrationRequested(bytes32,address,uint256)": {
        "params": {
          "_maxPrevious": "The maximum value of the current bond for the question. The arbitration request will get rejected if the current bond is greater than _maxPrevious. If set to 0, _maxPrevious is ignored.",
          "_questionID": "The ID of the question with the request for arbitration.",
          "_requester": "The address of the arbitration requester."
        }
      },
      "Contribution(uint256,uint256,uint256,address,uint256)": {
        "details": "Raised when a contribution is made, inside fundAppeal function.",
        "params": {
          "_amount": "Contribution amount.",
          "_contributor": "Caller of fundAppeal function.",
          "_localDisputeID": "Identifier of a dispute in scope of arbitrable contract. Arbitrator ids can be translated to local ids via externalIDtoLocalID.",
          "_round": "The round number the contribution was made to.",
          "ruling": "Indicates the ruling option which got the contribution."
        }
      },
      "Dispute(address,uint256,uint256,uint256)": {
        "details": "To be emitted when a dispute is created to link the correct meta-evidence to the disputeID.",
        "params": {
          "_arbitrator": "The arbitrator of the contract.",
          "_disputeID": "ID of the dispute in the Arbitrator contract.",
          "_evidenceGroupID": "Unique identifier of the evidence group that is linked to this dispute.",
          "_metaEvidenceID": "Unique identifier of meta-evidence."
        }
      },
      "Evidence(address,uint256,address,string)": {
        "details": "To be raised when evidence is submitted. Should point to the resource (evidences are not to be stored on chain due to gas considerations).",
        "params": {
          "_arbitrator": "The arbitrator of the contract.",
          "_evidence": "IPFS path to evidence, example: '/ipfs/Qmarwkf7C9RuzDEJNnarT3WZ7kem5bk8DZAzx78acJjMFH/evidence.json'",
          "_evidenceGroupID": "Unique identifier of the evidence group the evidence belongs to.",
          "_party": "The address of the party submiting the evidence. Note that 0x0 refers to evidence not submitted by any party."
        }
      },
      "MetaEvidence(uint256,string)": {
        "details": "To be emitted when meta-evidence is submitted.",
        "params": {
          "_evidence": "IPFS path to metaevidence, example: '/ipfs/Qmarwkf7C9RuzDEJNnarT3WZ7kem5bk8DZAzx78acJjMFH/metaevidence.json'",
          "_metaEvidenceID": "Unique identifier of meta-evidence."
        }
      },
      "Ruling(address,uint256,uint256)": {
        "details": "To be raised when a ruling is given.",
        "params": {
          "_arbitrator": "The arbitrator giving the ruling.",
          "_disputeID": "ID of the dispute in the Arbitrator contract.",
          "_ruling": "The ruling which was given."
        }
      },
      "RulingFunded(uint256,uint256,uint256)": {
        "details": "To be raised when a ruling option is fully funded for appeal.",
        "params": {
          "_localDisputeID": "Identifier of a dispute in scope of arbitrable contract. Arbitrator ids can be translated to local ids via externalIDtoLocalID.",
          "_round": "Number of the round this ruling option was fully funded in.",
          "_ruling": "The ruling option which just got fully funded."
        }
      },
      "RulingRelayed(bytes32,bytes32)": {
        "params": {
          "_questionID": "The ID of the question with the ruling to relay.",
          "_ruling": "Ruling converted into Realitio format."
        }
      },
      "Withdrawal(uint256,uint256,uint256,address,uint256)": {
        "details": "Raised when a contributor withdraws non-zero value.",
        "params": {
          "_contributor": "The beneficiary of withdrawal.",
          "_localDisputeID": "Identifier of a dispute in scope of arbitrable contract. Arbitrator ids can be translated to local ids via externalIDtoLocalID.",
          "_reward": "Total amount of withdrawal, consists of reimbursed deposits plus rewards.",
          "_round": "The round number the withdrawal was made from.",
          "_ruling": "Indicates the ruling option which contributor gets rewards from."
        }
      }
    },
    "kind": "dev",
    "methods": {
      "changeArbitrator(address,bytes)": {
        "params": {
          "_arbitrator": "New arbitrator address.",
          "_arbitratorExtraData": "Extradata for the arbitrator"
        }
      },
      "changeGovernor(address)": {
        "params": {
          "_governor": "New governor address."
        }
      },
      "changeLoserAppealPeriodMultiplier(uint256)": {
        "params": {
          "_loserAppealPeriodMultiplier": "New loser multiplier for appeal perido."
        }
      },
      "changeLoserMultiplier(uint256)": {
        "params": {
          "_loserMultiplier": "New loser multiplier."
        }
      },
      "changeMessenger(address)": {
        "params": {
          "_messenger": "New MESSENGER address."
        }
      },
      "changeMetaevidence(string)": {
        "params": {
          "_metaEvidence": "Metaevidence URI."
        }
      },
      "changeMinGasLimit(uint32)": {
        "params": {
          "_minGasLimit": "New minimum gas limit."
        }
      },
      "changeWinnerMultiplier(uint256)": {
        "params": {
          "_winnerMultiplier": "New winner multiplier."
        }
      },
      "constructor": {
        "params": {
          "_arbitrator": "Arbitrator contract address.",
          "_arbitratorExtraData": "The extra data used to raise a dispute in the arbitrator.",
          "_governor": "Governor of the contract.",
          "_homeProxy": "Proxy on L2.",
          "_messenger": "contract for L1 -> L2 tx",
          "_metaEvidence": "The URI of the meta evidence file.",
          "_multipliers": "Appeal multipliers:  - Multiplier for calculating the appeal cost of the winning answer.  - Multiplier for calculating the appeal cost of the losing answer.  - Multiplier for calculating the appeal period for the losing answer."
        }
      },
      "externalIDtoLocalID(uint256)": {
        "params": {
          "_externalDisputeID": "Dispute id as in arbitrator side."
        },
        "returns": {
          "_0": "localDisputeID Dispute id as in arbitrable contract."
        }
      },
      "fundAppeal(uint256,uint256)": {
        "params": {
          "_answer": "One of the possible rulings the arbitrator can give that the funder considers to be the correct answer to the question. Note that the answer has Kleros denomination, meaning that it has '+1' offset compared to Realitio format. Also note that '0' answer can be funded.",
          "_arbitrationID": "The ID of the arbitration, which is questionID cast into uint256."
        },
        "returns": {
          "_0": "Whether the answer was fully funded or not."
        }
      },
      "getContributionsToSuccessfulFundings(uint256,uint256,address)": {
        "params": {
          "_arbitrationID": "The ID of the arbitration.",
          "_contributor": "The address whose contributions to query.",
          "_round": "The round to query."
        },
        "returns": {
          "contributions": "The amount contributed to each funded answer by the contributor.",
          "fundedAnswers": "IDs of the answers that are fully funded."
        }
      },
      "getDisputeFee(bytes32)": {
        "returns": {
          "_0": "The fee to create a dispute."
        }
      },
      "getFundingStatus(uint256,uint256,uint256)": {
        "params": {
          "_answer": "The answer choice to get funding status for.",
          "_arbitrationID": "The ID of the arbitration.",
          "_round": "The round to query."
        },
        "returns": {
          "fullyFunded": "Whether the answer is fully funded or not.",
          "raised": "The amount paid for this answer."
        }
      },
      "getMultipliers()": {
        "returns": {
          "divisor": "Multiplier divisor.",
          "loser": "Losers stake multiplier.",
          "loserAppealPeriod": "Multiplier for calculating an appeal period duration for the losing side.",
          "winner": "Winners stake multiplier."
        }
      },
      "getNumberOfRounds(uint256)": {
        "params": {
          "_arbitrationID": "The ID of the arbitration related to the question."
        },
        "returns": {
          "_0": "The number of rounds."
        }
      },
      "getRoundInfo(uint256,uint256)": {
        "params": {
          "_arbitrationID": "The ID of the arbitration.",
          "_round": "The round to query."
        },
        "returns": {
          "feeRewards": "The amount of fees that will be used as rewards.",
          "fundedAnswers": "IDs of fully funded answers.",
          "paidFees": "The amount of fees paid for each fully funded answer."
        }
      },
      "getTotalWithdrawableAmount(uint256,address,uint256)": {
        "details": "This function is O(n) where n is the total number of rounds.This could exceed the gas limit, therefore this function should be used only as a utility and not be relied upon by other contracts.",
        "params": {
          "_arbitrationID": "The ID of the arbitration.",
          "_beneficiary": "The contributor for which to query.",
          "_contributedTo": "Answer that received contributions from contributor."
        },
        "returns": {
          "sum": "The total amount available to withdraw."
        }
      },
      "handleFailedDisputeCreation(bytes32,address)": {
        "params": {
          "_questionID": "The ID of the question.",
          "_requester": "The address of the arbitration requester."
        }
      },
      "numberOfRulingOptions(uint256)": {
        "returns": {
          "_0": "count The number of ruling options."
        }
      },
      "questionIDToArbitrationID(bytes32)": {
        "params": {
          "_questionID": "The ID of the question."
        },
        "returns": {
          "_0": "The ID of the arbitration."
        }
      },
      "receiveArbitrationAcknowledgement(bytes32,address)": {
        "params": {
          "_questionID": "The ID of the question.",
          "_requester": "The requester."
        }
      },
      "receiveArbitrationCancelation(bytes32,address)": {
        "params": {
          "_questionID": "The ID of the question.",
          "_requester": "The requester."
        }
      },
      "relayRule(bytes32,address)": {
        "params": {
          "_questionID": "The ID of the question.",
          "_requester": "The address of the arbitration requester."
        }
      },
      "requestArbitration(bytes32,uint256)": {
        "params": {
          "_maxPrevious": "The maximum value of the current bond for the question. The arbitration request will get rejected if the current bond is greater than _maxPrevious. If set to 0, _maxPrevious is ignored.",
          "_questionID": "The ID of the question."
        }
      },
      "rule(uint256,uint256)": {
        "details": "Accounts for the situation where the winner loses a case due to paying less appeal fees than expected.",
        "params": {
          "_disputeID": "The ID of the dispute in the ERC792 arbitrator.",
          "_ruling": "The ruling given by the arbitrator."
        }
      },
      "submitEvidence(uint256,string)": {
        "params": {
          "_arbitrationID": "The ID of the arbitration related to the question.",
          "_evidenceURI": "Link to evidence."
        }
      },
      "withdrawFeesAndRewards(uint256,address,uint256,uint256)": {
        "params": {
          "_answer": "The answer to query the reward from.",
          "_arbitrationID": "The ID of the arbitration.",
          "_beneficiary": "The address to send reward to.",
          "_round": "The round from which to withdraw."
        },
        "returns": {
          "reward": "The withdrawn amount."
        }
      },
      "withdrawFeesAndRewardsForAllRounds(uint256,address,uint256)": {
        "details": "This function is O(n) where n is the total number of rounds. Arbitration cost of subsequent rounds is `A(n) = 2A(n-1) + 1`.      So because of this exponential growth of costs, you can assume n is less than 10 at all times.",
        "params": {
          "_arbitrationID": "The ID of the arbitration.",
          "_beneficiary": "The address that made contributions.",
          "_contributedTo": "Answer that received contributions from contributor."
        }
      }
    },
    "version": 1
  },
  "userdoc": {
    "events": {
      "ArbitrationCanceled(bytes32,address)": {
        "notice": "Should be emitted when the arbitration is canceled by the Home Chain."
      },
      "ArbitrationCreated(bytes32,address,uint256)": {
        "notice": "Should be emitted when the dispute is created."
      },
      "ArbitrationFailed(bytes32,address)": {
        "notice": "Should be emitted when the dispute could not be created."
      },
      "ArbitrationRequested(bytes32,address,uint256)": {
        "notice": "Should be emitted when the arbitration is requested."
      },
      "RulingRelayed(bytes32,bytes32)": {
        "notice": "Should be emitted when the ruling is relayed to home proxy."
      }
    },
    "kind": "user",
    "methods": {
      "changeArbitrator(address,bytes)": {
        "notice": "Changes the arbitrator and extradata. The arbitrator is trusted to support appeal period and not reenter. Note avoid changing arbitrator if there is an active arbitration request in Requested phase, otherwise evidence submitted during this phase will be submitted to the new arbitrator, while arbitration request will be processed by the old one."
      },
      "changeGovernor(address)": {
        "notice": "Changes the governor of the contract."
      },
      "changeLoserAppealPeriodMultiplier(uint256)": {
        "notice": "Changes loser multiplier for appeal period."
      },
      "changeLoserMultiplier(uint256)": {
        "notice": "Changes loser multiplier value."
      },
      "changeMessenger(address)": {
        "notice": "Changes the L1 -> L2 MESSENGER contract."
      },
      "changeMetaevidence(string)": {
        "notice": "Updates the meta evidence used for disputes."
      },
      "changeMinGasLimit(uint32)": {
        "notice": "Changes minimum gas limit for L1 -> L2 tx."
      },
      "changeWinnerMultiplier(uint256)": {
        "notice": "Changes winner multiplier value."
      },
      "constructor": {
        "notice": "Creates an arbitration proxy on the foreign chain (L1)."
      },
      "externalIDtoLocalID(uint256)": {
        "notice": "Maps external (arbitrator side) dispute id to local (arbitrable) dispute id."
      },
      "fundAppeal(uint256,uint256)": {
        "notice": "Takes up to the total amount required to fund an answer. Reimburses the rest. Creates an appeal if at least two answers are funded."
      },
      "getContributionsToSuccessfulFundings(uint256,uint256,address)": {
        "notice": "Gets contributions to the answers that are fully funded."
      },
      "getDisputeFee(bytes32)": {
        "notice": "Gets the fee to create a dispute."
      },
      "getFundingStatus(uint256,uint256,uint256)": {
        "notice": "Gets the information of a round of a question for a specific answer choice."
      },
      "getMultipliers()": {
        "notice": "Returns stake multipliers."
      },
      "getNumberOfRounds(uint256)": {
        "notice": "Gets the number of rounds of the specific question."
      },
      "getRoundInfo(uint256,uint256)": {
        "notice": "Gets the information of a round of a question."
      },
      "getTotalWithdrawableAmount(uint256,address,uint256)": {
        "notice": "Returns the sum of withdrawable amount."
      },
      "handleFailedDisputeCreation(bytes32,address)": {
        "notice": "Cancels the arbitration in case the dispute could not be created. Requires a small deposit to cover RedStone fees."
      },
      "numberOfRulingOptions(uint256)": {
        "notice": "Returns number of possible ruling options. Valid rulings are [0, return value]."
      },
      "questionIDToArbitrationID(bytes32)": {
        "notice": "Casts question ID into uint256 thus returning the related arbitration ID."
      },
      "receiveArbitrationAcknowledgement(bytes32,address)": {
        "notice": "Receives the acknowledgement of the arbitration request for the given question and requester. TRUSTED."
      },
      "receiveArbitrationCancelation(bytes32,address)": {
        "notice": "Receives the cancelation of the arbitration request for the given question and requester. TRUSTED."
      },
      "relayRule(bytes32,address)": {
        "notice": "Relays the ruling to home proxy. Requires a small deposit to cover RedStone fees."
      },
      "requestArbitration(bytes32,uint256)": {
        "notice": "Requests arbitration for the given question and contested answer."
      },
      "rule(uint256,uint256)": {
        "notice": "Rules a specified dispute. Can only be called by the arbitrator."
      },
      "submitEvidence(uint256,string)": {
        "notice": "Allows to submit evidence for a particular question."
      },
      "withdrawFeesAndRewards(uint256,address,uint256,uint256)": {
        "notice": "Sends the fee stake rewards and reimbursements proportional to the contributions made to the winner of a dispute. Reimburses contributions if there is no winner."
      },
      "withdrawFeesAndRewardsForAllRounds(uint256,address,uint256)": {
        "notice": "Allows to withdraw any rewards or reimbursable fees for all rounds at once."
      }
    },
    "version": 1
  },
  "storageLayout": {
    "storage": [
      {
        "astId": 372,
        "contract": "src/RealitioForeignProxyRedStone.sol:RealitioForeignProxyRedStone",
        "label": "messenger",
        "offset": 0,
        "slot": "0",
        "type": "t_contract(ICrossDomainMessenger)3068"
      },
      {
        "astId": 375,
        "contract": "src/RealitioForeignProxyRedStone.sol:RealitioForeignProxyRedStone",
        "label": "minGasLimit",
        "offset": 20,
        "slot": "0",
        "type": "t_uint32"
      },
      {
        "astId": 379,
        "contract": "src/RealitioForeignProxyRedStone.sol:RealitioForeignProxyRedStone",
        "label": "governor",
        "offset": 0,
        "slot": "1",
        "type": "t_address"
      },
      {
        "astId": 382,
        "contract": "src/RealitioForeignProxyRedStone.sol:RealitioForeignProxyRedStone",
        "label": "arbitrator",
        "offset": 0,
        "slot": "2",
        "type": "t_contract(IArbitrator)249"
      },
      {
        "astId": 384,
        "contract": "src/RealitioForeignProxyRedStone.sol:RealitioForeignProxyRedStone",
        "label": "arbitratorExtraData",
        "offset": 0,
        "slot": "3",
        "type": "t_bytes_storage"
      },
      {
        "astId": 386,
        "contract": "src/RealitioForeignProxyRedStone.sol:RealitioForeignProxyRedStone",
        "label": "metaEvidenceUpdates",
        "offset": 0,
        "slot": "4",
        "type": "t_uint256"
      },
      {
        "astId": 388,
        "contract": "src/RealitioForeignProxyRedStone.sol:RealitioForeignProxyRedStone",
        "label": "winnerMultiplier",
        "offset": 0,
        "slot": "5",
        "type": "t_uint256"
      },
      {
        "astId": 390,
        "contract": "src/RealitioForeignProxyRedStone.sol:RealitioForeignProxyRedStone",
        "label": "loserMultiplier",
        "offset": 0,
        "slot": "6",
        "type": "t_uint256"
      },
      {
        "astId": 392,
        "contract": "src/RealitioForeignProxyRedStone.sol:RealitioForeignProxyRedStone",
        "label": "loserAppealPeriodMultiplier",
        "offset": 0,
        "slot": "7",
        "type": "t_uint256"
      },
      {
        "astId": 399,
        "contract": "src/RealitioForeignProxyRedStone.sol:RealitioForeignProxyRedStone",
        "label": "arbitrationRequests",
        "offset": 0,
        "slot": "8",
        "type": "t_mapping(t_uint256,t_mapping(t_address,t_struct(ArbitrationRequest)344_storage))"
      },
      {
        "astId": 406,
        "contract": "src/RealitioForeignProxyRedStone.sol:RealitioForeignProxyRedStone",
        "label": "arbitratorDisputeIDToDisputeDetails",
        "offset": 0,
        "slot": "9",
        "type": "t_mapping(t_address,t_mapping(t_uint256,t_struct(DisputeDetails)349_storage))"
      },
      {
        "astId": 410,
        "contract": "src/RealitioForeignProxyRedStone.sol:RealitioForeignProxyRedStone",
        "label": "arbitrationIDToDisputeExists",
        "offset": 0,
        "slot": "10",
        "type": "t_mapping(t_uint256,t_bool)"
      },
      {
        "astId": 414,
        "contract": "src/RealitioForeignProxyRedStone.sol:RealitioForeignProxyRedStone",
        "label": "arbitrationIDToRequester",
        "offset": 0,
        "slot": "11",
        "type": "t_mapping(t_uint256,t_address)"
      }
    ],
    "types": {
      "t_address": {
        "encoding": "inplace",
        "label": "address",
        "numberOfBytes": "20"
      },
      "t_array(t_struct(Round)369_storage)dyn_storage": {
        "base": "t_struct(Round)369_storage",
        "encoding": "dynamic_array",
        "label": "struct RealitioForeignProxyRedStone.Round[]",
        "numberOfBytes": "32"
      },
      "t_array(t_uint256)dyn_storage": {
        "base": "t_uint256",
        "encoding": "dynamic_array",
        "label": "uint256[]",
        "numberOfBytes": "32"
      },
      "t_bool": {
        "encoding": "inplace",
        "label": "bool",
        "numberOfBytes": "1"
      },
      "t_bytes_storage": {
        "encoding": "bytes",
        "label": "bytes",
        "numberOfBytes": "32"
      },
      "t_contract(IArbitrator)249": {
        "encoding": "inplace",
        "label": "contract IArbitrator",
        "numberOfBytes": "20"
      },
      "t_contract(ICrossDomainMessenger)3068": {
        "encoding": "inplace",
        "label": "contract ICrossDomainMessenger",
        "numberOfBytes": "20"
      },
      "t_enum(Status)323": {
        "encoding": "inplace",
        "label": "enum RealitioForeignProxyRedStone.Status",
        "numberOfBytes": "1"
      },
      "t_mapping(t_address,t_mapping(t_uint256,t_struct(DisputeDetails)349_storage))": {
        "encoding": "mapping",
        "key": "t_address",
        "label": "mapping(address => mapping(uint256 => struct RealitioForeignProxyRedStone.DisputeDetails))",
        "numberOfBytes": "32",
        "value": "t_mapping(t_uint256,t_struct(DisputeDetails)349_storage)"
      },
      "t_mapping(t_address,t_mapping(t_uint256,t_uint256))": {
        "encoding": "mapping",
        "key": "t_address",
        "label": "mapping(address => mapping(uint256 => uint256))",
        "numberOfBytes": "32",
        "value": "t_mapping(t_uint256,t_uint256)"
      },
      "t_mapping(t_address,t_struct(ArbitrationRequest)344_storage)": {
        "encoding": "mapping",
        "key": "t_address",
        "label": "mapping(address => struct RealitioForeignProxyRedStone.ArbitrationRequest)",
        "numberOfBytes": "32",
        "value": "t_struct(ArbitrationRequest)344_storage"
      },
      "t_mapping(t_uint256,t_address)": {
        "encoding": "mapping",
        "key": "t_uint256",
        "label": "mapping(uint256 => address)",
        "numberOfBytes": "32",
        "value": "t_address"
      },
      "t_mapping(t_uint256,t_bool)": {
        "encoding": "mapping",
        "key": "t_uint256",
        "label": "mapping(uint256 => bool)",
        "numberOfBytes": "32",
        "value": "t_bool"
      },
      "t_mapping(t_uint256,t_mapping(t_address,t_struct(ArbitrationRequest)344_storage))": {
        "encoding": "mapping",
        "key": "t_uint256",
        "label": "mapping(uint256 => mapping(address => struct RealitioForeignProxyRedStone.ArbitrationRequest))",
        "numberOfBytes": "32",
        "value": "t_mapping(t_address,t_struct(ArbitrationRequest)344_storage)"
      },
      "t_mapping(t_uint256,t_struct(DisputeDetails)349_storage)": {
        "encoding": "mapping",
        "key": "t_uint256",
        "label": "mapping(uint256 => struct RealitioForeignProxyRedStone.DisputeDetails)",
        "numberOfBytes": "32",
        "value": "t_struct(DisputeDetails)349_storage"
      },
      "t_mapping(t_uint256,t_uint256)": {
        "encoding": "mapping",
        "key": "t_uint256",
        "label": "mapping(uint256 => uint256)",
        "numberOfBytes": "32",
        "value": "t_uint256"
      },
      "t_struct(ArbitrationRequest)344_storage": {
        "encoding": "inplace",
        "label": "struct RealitioForeignProxyRedStone.ArbitrationRequest",
        "members": [
          {
            "astId": 326,
            "contract": "src/RealitioForeignProxyRedStone.sol:RealitioForeignProxyRedStone",
            "label": "status",
            "offset": 0,
            "slot": "0",
            "type": "t_enum(Status)323"
          },
          {
            "astId": 328,
            "contract": "src/RealitioForeignProxyRedStone.sol:RealitioForeignProxyRedStone",
            "label": "deposit",
            "offset": 1,
            "slot": "0",
            "type": "t_uint248"
          },
          {
            "astId": 330,
            "contract": "src/RealitioForeignProxyRedStone.sol:RealitioForeignProxyRedStone",
            "label": "disputeID",
            "offset": 0,
            "slot": "1",
            "type": "t_uint256"
          },
          {
            "astId": 332,
            "contract": "src/RealitioForeignProxyRedStone.sol:RealitioForeignProxyRedStone",
            "label": "answer",
            "offset": 0,
            "slot": "2",
            "type": "t_uint256"
          },
          {
            "astId": 336,
            "contract": "src/RealitioForeignProxyRedStone.sol:RealitioForeignProxyRedStone",
            "label": "rounds",
            "offset": 0,
            "slot": "3",
            "type": "t_array(t_struct(Round)369_storage)dyn_storage"
          },
          {
            "astId": 339,
            "contract": "src/RealitioForeignProxyRedStone.sol:RealitioForeignProxyRedStone",
            "label": "arbitrator",
            "offset": 0,
            "slot": "4",
            "type": "t_contract(IArbitrator)249"
          },
          {
            "astId": 341,
            "contract": "src/RealitioForeignProxyRedStone.sol:RealitioForeignProxyRedStone",
            "label": "arbitratorExtraData",
            "offset": 0,
            "slot": "5",
            "type": "t_bytes_storage"
          },
          {
            "astId": 343,
            "contract": "src/RealitioForeignProxyRedStone.sol:RealitioForeignProxyRedStone",
            "label": "metaEvidenceID",
            "offset": 0,
            "slot": "6",
            "type": "t_uint256"
          }
        ],
        "numberOfBytes": "224"
      },
      "t_struct(DisputeDetails)349_storage": {
        "encoding": "inplace",
        "label": "struct RealitioForeignProxyRedStone.DisputeDetails",
        "members": [
          {
            "astId": 346,
            "contract": "src/RealitioForeignProxyRedStone.sol:RealitioForeignProxyRedStone",
            "label": "arbitrationID",
            "offset": 0,
            "slot": "0",
            "type": "t_uint256"
          },
          {
            "astId": 348,
            "contract": "src/RealitioForeignProxyRedStone.sol:RealitioForeignProxyRedStone",
            "label": "requester",
            "offset": 0,
            "slot": "1",
            "type": "t_address"
          }
        ],
        "numberOfBytes": "64"
      },
      "t_struct(Round)369_storage": {
        "encoding": "inplace",
        "label": "struct RealitioForeignProxyRedStone.Round",
        "members": [
          {
            "astId": 353,
            "contract": "src/RealitioForeignProxyRedStone.sol:RealitioForeignProxyRedStone",
            "label": "paidFees",
            "offset": 0,
            "slot": "0",
            "type": "t_mapping(t_uint256,t_uint256)"
          },
          {
            "astId": 357,
            "contract": "src/RealitioForeignProxyRedStone.sol:RealitioForeignProxyRedStone",
            "label": "hasPaid",
            "offset": 0,
            "slot": "1",
            "type": "t_mapping(t_uint256,t_bool)"
          },
          {
            "astId": 363,
            "contract": "src/RealitioForeignProxyRedStone.sol:RealitioForeignProxyRedStone",
            "label": "contributions",
            "offset": 0,
            "slot": "2",
            "type": "t_mapping(t_address,t_mapping(t_uint256,t_uint256))"
          },
          {
            "astId": 365,
            "contract": "src/RealitioForeignProxyRedStone.sol:RealitioForeignProxyRedStone",
            "label": "feeRewards",
            "offset": 0,
            "slot": "3",
            "type": "t_uint256"
          },
          {
            "astId": 368,
            "contract": "src/RealitioForeignProxyRedStone.sol:RealitioForeignProxyRedStone",
            "label": "fundedAnswers",
            "offset": 0,
            "slot": "4",
            "type": "t_array(t_uint256)dyn_storage"
          }
        ],
        "numberOfBytes": "160"
      },
      "t_uint248": {
        "encoding": "inplace",
        "label": "uint248",
        "numberOfBytes": "31"
      },
      "t_uint256": {
        "encoding": "inplace",
        "label": "uint256",
        "numberOfBytes": "32"
      },
      "t_uint32": {
        "encoding": "inplace",
        "label": "uint32",
        "numberOfBytes": "4"
      }
    }
  }
}